{
  "_format": "hh-sol-artifact-1",
  "contractName": "MoodArtNFT",
  "sourceName": "contracts/MoodArtNFT.sol",
  "abi": [
    {
      "inputs": [
        {
          "internalType": "address",
          "name": "_platformFeeRecipient",
          "type": "address"
        }
      ],
      "stateMutability": "nonpayable",
      "type": "constructor"
    },
    {
      "anonymous": false,
      "inputs": [
        {
          "indexed": true,
          "internalType": "address",
          "name": "owner",
          "type": "address"
        },
        {
          "indexed": true,
          "internalType": "address",
          "name": "approved",
          "type": "address"
        },
        {
          "indexed": true,
          "internalType": "uint256",
          "name": "tokenId",
          "type": "uint256"
        }
      ],
      "name": "Approval",
      "type": "event"
    },
    {
      "anonymous": false,
      "inputs": [
        {
          "indexed": true,
          "internalType": "address",
          "name": "owner",
          "type": "address"
        },
        {
          "indexed": true,
          "internalType": "address",
          "name": "operator",
          "type": "address"
        },
        {
          "indexed": false,
          "internalType": "bool",
          "name": "approved",
          "type": "bool"
        }
      ],
      "name": "ApprovalForAll",
      "type": "event"
    },
    {
      "anonymous": false,
      "inputs": [
        {
          "indexed": false,
          "internalType": "uint256",
          "name": "_fromTokenId",
          "type": "uint256"
        },
        {
          "indexed": false,
          "internalType": "uint256",
          "name": "_toTokenId",
          "type": "uint256"
        }
      ],
      "name": "BatchMetadataUpdate",
      "type": "event"
    },
    {
      "anonymous": false,
      "inputs": [
        {
          "indexed": false,
          "internalType": "uint256",
          "name": "_tokenId",
          "type": "uint256"
        }
      ],
      "name": "MetadataUpdate",
      "type": "event"
    },
    {
      "anonymous": false,
      "inputs": [
        {
          "indexed": true,
          "internalType": "uint256",
          "name": "tokenId",
          "type": "uint256"
        },
        {
          "indexed": true,
          "internalType": "address",
          "name": "creator",
          "type": "address"
        },
        {
          "indexed": false,
          "internalType": "string",
          "name": "mood",
          "type": "string"
        },
        {
          "indexed": false,
          "internalType": "uint256",
          "name": "timestamp",
          "type": "uint256"
        }
      ],
      "name": "NFTMinted",
      "type": "event"
    },
    {
      "anonymous": false,
      "inputs": [
        {
          "indexed": true,
          "internalType": "address",
          "name": "previousOwner",
          "type": "address"
        },
        {
          "indexed": true,
          "internalType": "address",
          "name": "newOwner",
          "type": "address"
        }
      ],
      "name": "OwnershipTransferred",
      "type": "event"
    },
    {
      "anonymous": false,
      "inputs": [
        {
          "indexed": false,
          "internalType": "address",
          "name": "newRecipient",
          "type": "address"
        }
      ],
      "name": "PlatformFeeRecipientUpdated",
      "type": "event"
    },
    {
      "anonymous": false,
      "inputs": [
        {
          "indexed": false,
          "internalType": "uint256",
          "name": "newFee",
          "type": "uint256"
        }
      ],
      "name": "PlatformFeeUpdated",
      "type": "event"
    },
    {
      "anonymous": false,
      "inputs": [
        {
          "indexed": true,
          "internalType": "address",
          "name": "from",
          "type": "address"
        },
        {
          "indexed": true,
          "internalType": "address",
          "name": "to",
          "type": "address"
        },
        {
          "indexed": true,
          "internalType": "uint256",
          "name": "tokenId",
          "type": "uint256"
        }
      ],
      "name": "Transfer",
      "type": "event"
    },
    {
      "inputs": [],
      "name": "MINTING_FEE",
      "outputs": [
        {
          "internalType": "uint256",
          "name": "",
          "type": "uint256"
        }
      ],
      "stateMutability": "view",
      "type": "function"
    },
    {
      "inputs": [
        {
          "internalType": "address",
          "name": "to",
          "type": "address"
        },
        {
          "internalType": "uint256",
          "name": "tokenId",
          "type": "uint256"
        }
      ],
      "name": "approve",
      "outputs": [],
      "stateMutability": "nonpayable",
      "type": "function"
    },
    {
      "inputs": [
        {
          "internalType": "address",
          "name": "owner",
          "type": "address"
        }
      ],
      "name": "balanceOf",
      "outputs": [
        {
          "internalType": "uint256",
          "name": "",
          "type": "uint256"
        }
      ],
      "stateMutability": "view",
      "type": "function"
    },
    {
      "inputs": [],
      "name": "emergencyPause",
      "outputs": [],
      "stateMutability": "nonpayable",
      "type": "function"
    },
    {
      "inputs": [
        {
          "internalType": "uint256",
          "name": "tokenId",
          "type": "uint256"
        }
      ],
      "name": "getApproved",
      "outputs": [
        {
          "internalType": "address",
          "name": "",
          "type": "address"
        }
      ],
      "stateMutability": "view",
      "type": "function"
    },
    {
      "inputs": [
        {
          "internalType": "uint256",
          "name": "tokenId",
          "type": "uint256"
        }
      ],
      "name": "getNFTMetadata",
      "outputs": [
        {
          "components": [
            {
              "internalType": "string",
              "name": "imageData",
              "type": "string"
            },
            {
              "internalType": "string",
              "name": "mood",
              "type": "string"
            },
            {
              "internalType": "uint256",
              "name": "timestamp",
              "type": "uint256"
            },
            {
              "internalType": "address",
              "name": "creator",
              "type": "address"
            }
          ],
          "internalType": "struct MoodArtNFT.NFTMetadata",
          "name": "",
          "type": "tuple"
        }
      ],
      "stateMutability": "view",
      "type": "function"
    },
    {
      "inputs": [
        {
          "internalType": "address",
          "name": "owner",
          "type": "address"
        }
      ],
      "name": "getTokensByOwner",
      "outputs": [
        {
          "internalType": "uint256[]",
          "name": "",
          "type": "uint256[]"
        }
      ],
      "stateMutability": "view",
      "type": "function"
    },
    {
      "inputs": [
        {
          "internalType": "address",
          "name": "owner",
          "type": "address"
        },
        {
          "internalType": "address",
          "name": "operator",
          "type": "address"
        }
      ],
      "name": "isApprovedForAll",
      "outputs": [
        {
          "internalType": "bool",
          "name": "",
          "type": "bool"
        }
      ],
      "stateMutability": "view",
      "type": "function"
    },
    {
      "inputs": [
        {
          "internalType": "string",
          "name": "imageData",
          "type": "string"
        },
        {
          "internalType": "string",
          "name": "mood",
          "type": "string"
        },
        {
          "internalType": "string",
          "name": "metadataURI",
          "type": "string"
        }
      ],
      "name": "mintNFT",
      "outputs": [],
      "stateMutability": "payable",
      "type": "function"
    },
    {
      "inputs": [],
      "name": "name",
      "outputs": [
        {
          "internalType": "string",
          "name": "",
          "type": "string"
        }
      ],
      "stateMutability": "view",
      "type": "function"
    },
    {
      "inputs": [],
      "name": "owner",
      "outputs": [
        {
          "internalType": "address",
          "name": "",
          "type": "address"
        }
      ],
      "stateMutability": "view",
      "type": "function"
    },
    {
      "inputs": [
        {
          "internalType": "uint256",
          "name": "tokenId",
          "type": "uint256"
        }
      ],
      "name": "ownerOf",
      "outputs": [
        {
          "internalType": "address",
          "name": "",
          "type": "address"
        }
      ],
      "stateMutability": "view",
      "type": "function"
    },
    {
      "inputs": [],
      "name": "platformFeeRecipient",
      "outputs": [
        {
          "internalType": "address",
          "name": "",
          "type": "address"
        }
      ],
      "stateMutability": "view",
      "type": "function"
    },
    {
      "inputs": [],
      "name": "renounceOwnership",
      "outputs": [],
      "stateMutability": "nonpayable",
      "type": "function"
    },
    {
      "inputs": [
        {
          "internalType": "address",
          "name": "from",
          "type": "address"
        },
        {
          "internalType": "address",
          "name": "to",
          "type": "address"
        },
        {
          "internalType": "uint256",
          "name": "tokenId",
          "type": "uint256"
        }
      ],
      "name": "safeTransferFrom",
      "outputs": [],
      "stateMutability": "nonpayable",
      "type": "function"
    },
    {
      "inputs": [
        {
          "internalType": "address",
          "name": "from",
          "type": "address"
        },
        {
          "internalType": "address",
          "name": "to",
          "type": "address"
        },
        {
          "internalType": "uint256",
          "name": "tokenId",
          "type": "uint256"
        },
        {
          "internalType": "bytes",
          "name": "data",
          "type": "bytes"
        }
      ],
      "name": "safeTransferFrom",
      "outputs": [],
      "stateMutability": "nonpayable",
      "type": "function"
    },
    {
      "inputs": [
        {
          "internalType": "address",
          "name": "operator",
          "type": "address"
        },
        {
          "internalType": "bool",
          "name": "approved",
          "type": "bool"
        }
      ],
      "name": "setApprovalForAll",
      "outputs": [],
      "stateMutability": "nonpayable",
      "type": "function"
    },
    {
      "inputs": [
        {
          "internalType": "bytes4",
          "name": "interfaceId",
          "type": "bytes4"
        }
      ],
      "name": "supportsInterface",
      "outputs": [
        {
          "internalType": "bool",
          "name": "",
          "type": "bool"
        }
      ],
      "stateMutability": "view",
      "type": "function"
    },
    {
      "inputs": [],
      "name": "symbol",
      "outputs": [
        {
          "internalType": "string",
          "name": "",
          "type": "string"
        }
      ],
      "stateMutability": "view",
      "type": "function"
    },
    {
      "inputs": [
        {
          "internalType": "uint256",
          "name": "",
          "type": "uint256"
        }
      ],
      "name": "tokenMetadata",
      "outputs": [
        {
          "internalType": "string",
          "name": "imageData",
          "type": "string"
        },
        {
          "internalType": "string",
          "name": "mood",
          "type": "string"
        },
        {
          "internalType": "uint256",
          "name": "timestamp",
          "type": "uint256"
        },
        {
          "internalType": "address",
          "name": "creator",
          "type": "address"
        }
      ],
      "stateMutability": "view",
      "type": "function"
    },
    {
      "inputs": [
        {
          "internalType": "uint256",
          "name": "tokenId",
          "type": "uint256"
        }
      ],
      "name": "tokenURI",
      "outputs": [
        {
          "internalType": "string",
          "name": "",
          "type": "string"
        }
      ],
      "stateMutability": "view",
      "type": "function"
    },
    {
      "inputs": [],
      "name": "totalSupply",
      "outputs": [
        {
          "internalType": "uint256",
          "name": "",
          "type": "uint256"
        }
      ],
      "stateMutability": "view",
      "type": "function"
    },
    {
      "inputs": [
        {
          "internalType": "address",
          "name": "from",
          "type": "address"
        },
        {
          "internalType": "address",
          "name": "to",
          "type": "address"
        },
        {
          "internalType": "uint256",
          "name": "tokenId",
          "type": "uint256"
        }
      ],
      "name": "transferFrom",
      "outputs": [],
      "stateMutability": "nonpayable",
      "type": "function"
    },
    {
      "inputs": [
        {
          "internalType": "address",
          "name": "newOwner",
          "type": "address"
        }
      ],
      "name": "transferOwnership",
      "outputs": [],
      "stateMutability": "nonpayable",
      "type": "function"
    },
    {
      "inputs": [
        {
          "internalType": "address",
          "name": "newRecipient",
          "type": "address"
        }
      ],
      "name": "updatePlatformFeeRecipient",
      "outputs": [],
      "stateMutability": "nonpayable",
      "type": "function"
    },
    {
      "inputs": [
        {
          "internalType": "uint256",
          "name": "amount",
          "type": "uint256"
        }
      ],
      "name": "withdrawExcessETH",
      "outputs": [],
      "stateMutability": "nonpayable",
      "type": "function"
    }
  ],
  "bytecode": "0x60806040523480156200001157600080fd5b506040516200484b3803806200484b833981810160405281019062000037919062000269565b6040518060400160405280600a81526020017f4d6f6f644172744e4654000000000000000000000000000000000000000000008152506040518060400160405280600481526020017f4d4f4f44000000000000000000000000000000000000000000000000000000008152508160009081620000b4919062000515565b508060019081620000c6919062000515565b505050620000e9620000dd6200013160201b60201c565b6200013960201b60201c565b80600960006101000a81548173ffffffffffffffffffffffffffffffffffffffff021916908373ffffffffffffffffffffffffffffffffffffffff16021790555050620005fc565b600033905090565b6000600760009054906101000a900473ffffffffffffffffffffffffffffffffffffffff16905081600760006101000a81548173ffffffffffffffffffffffffffffffffffffffff021916908373ffffffffffffffffffffffffffffffffffffffff1602179055508173ffffffffffffffffffffffffffffffffffffffff168173ffffffffffffffffffffffffffffffffffffffff167f8be0079c531659141344cd1fd0a4f28419497f9722a3daafe3b4186f6b6457e060405160405180910390a35050565b600080fd5b600073ffffffffffffffffffffffffffffffffffffffff82169050919050565b6000620002318262000204565b9050919050565b620002438162000224565b81146200024f57600080fd5b50565b600081519050620002638162000238565b92915050565b600060208284031215620002825762000281620001ff565b5b6000620002928482850162000252565b91505092915050565b600081519050919050565b7f4e487b7100000000000000000000000000000000000000000000000000000000600052604160045260246000fd5b7f4e487b7100000000000000000000000000000000000000000000000000000000600052602260045260246000fd5b600060028204905060018216806200031d57607f821691505b602082108103620003335762000332620002d5565b5b50919050565b60008190508160005260206000209050919050565b60006020601f8301049050919050565b600082821b905092915050565b6000600883026200039d7fffffffffffffffffffffffffffffffffffffffffffffffffffffffffffffffff826200035e565b620003a986836200035e565b95508019841693508086168417925050509392505050565b6000819050919050565b6000819050919050565b6000620003f6620003f0620003ea84620003c1565b620003cb565b620003c1565b9050919050565b6000819050919050565b6200041283620003d5565b6200042a6200042182620003fd565b8484546200036b565b825550505050565b600090565b6200044162000432565b6200044e81848462000407565b505050565b5b8181101562000476576200046a60008262000437565b60018101905062000454565b5050565b601f821115620004c5576200048f8162000339565b6200049a846200034e565b81016020851015620004aa578190505b620004c2620004b9856200034e565b83018262000453565b50505b505050565b600082821c905092915050565b6000620004ea60001984600802620004ca565b1980831691505092915050565b6000620005058383620004d7565b9150826002028217905092915050565b62000520826200029b565b67ffffffffffffffff8111156200053c576200053b620002a6565b5b62000548825462000304565b620005558282856200047a565b600060209050601f8311600181146200058d576000841562000578578287015190505b620005848582620004f7565b865550620005f4565b601f1984166200059d8662000339565b60005b82811015620005c757848901518255600182019150602085019450602081019050620005a0565b86831015620005e75784890151620005e3601f891682620004d7565b8355505b6001600288020188555050505b505050505050565b61423f806200060c6000396000f3fe6080604052600436106101815760003560e01c80636be9a6f1116100d1578063b88d4fde1161008a578063e985e9c511610064578063e985e9c514610588578063eb13554f146105c5578063f2fde38b146105f0578063f5fe7f711461061957610181565b8063b88d4fde146104f7578063c87b56dd14610520578063d642b4b11461055d57610181565b80636be9a6f1146103e757806370a0823114610424578063715018a6146104615780638da5cb5b1461047857806395d89b41146104a3578063a22cb465146104ce57610181565b80631b70e79c1161013e57806342842e0e1161011857806342842e0e1461032a57806351858e27146103535780636352211e1461036a5780636914db60146103a757610181565b80631b70e79c1461029b57806323b872dd146102c457806340398d67146102ed57610181565b806301ffc9a71461018657806306fdde03146101c3578063081812fc146101ee578063095ea7b31461022b5780630c3b7b721461025457806318160ddd14610270575b600080fd5b34801561019257600080fd5b506101ad60048036038101906101a89190612951565b610642565b6040516101ba9190612999565b60405180910390f35b3480156101cf57600080fd5b506101d8610654565b6040516101e59190612a44565b60405180910390f35b3480156101fa57600080fd5b5061021560048036038101906102109190612a9c565b6106e6565b6040516102229190612b0a565b60405180910390f35b34801561023757600080fd5b50610252600480360381019061024d9190612b51565b61072c565b005b61026e60048036038101906102699190612cc6565b610843565b005b34801561027c57600080fd5b50610285610b4e565b6040516102929190612d7c565b60405180910390f35b3480156102a757600080fd5b506102c260048036038101906102bd9190612a9c565b610b58565b005b3480156102d057600080fd5b506102eb60048036038101906102e69190612d97565b610c5a565b005b3480156102f957600080fd5b50610314600480360381019061030f9190612dea565b610cba565b6040516103219190612ed5565b60405180910390f35b34801561033657600080fd5b50610351600480360381019061034c9190612d97565b610db0565b005b34801561035f57600080fd5b50610368610dd0565b005b34801561037657600080fd5b50610391600480360381019061038c9190612a9c565b610dda565b60405161039e9190612b0a565b60405180910390f35b3480156103b357600080fd5b506103ce60048036038101906103c99190612a9c565b610e60565b6040516103de9493929190612ef7565b60405180910390f35b3480156103f357600080fd5b5061040e60048036038101906104099190612a9c565b610fc0565b60405161041b919061300d565b60405180910390f35b34801561043057600080fd5b5061044b60048036038101906104469190612dea565b6111e8565b6040516104589190612d7c565b60405180910390f35b34801561046d57600080fd5b5061047661129f565b005b34801561048457600080fd5b5061048d6112b3565b60405161049a9190612b0a565b60405180910390f35b3480156104af57600080fd5b506104b86112dd565b6040516104c59190612a44565b60405180910390f35b3480156104da57600080fd5b506104f560048036038101906104f0919061305b565b61136f565b005b34801561050357600080fd5b5061051e6004803603810190610519919061313c565b611385565b005b34801561052c57600080fd5b5061054760048036038101906105429190612a9c565b6113e7565b6040516105549190612a44565b60405180910390f35b34801561056957600080fd5b506105726113f9565b60405161057f9190612d7c565b60405180910390f35b34801561059457600080fd5b506105af60048036038101906105aa91906131bf565b611405565b6040516105bc9190612999565b60405180910390f35b3480156105d157600080fd5b506105da611499565b6040516105e79190612b0a565b60405180910390f35b3480156105fc57600080fd5b5061061760048036038101906106129190612dea565b6114bf565b005b34801561062557600080fd5b50610640600480360381019061063b9190612dea565b611542565b005b600061064d82611634565b9050919050565b6060600080546106639061322e565b80601f016020809104026020016040519081016040528092919081815260200182805461068f9061322e565b80156106dc5780601f106106b1576101008083540402835291602001916106dc565b820191906000526020600020905b8154815290600101906020018083116106bf57829003601f168201915b5050505050905090565b60006106f182611695565b6004600083815260200190815260200160002060009054906101000a900473ffffffffffffffffffffffffffffffffffffffff169050919050565b600061073782610dda565b90508073ffffffffffffffffffffffffffffffffffffffff168373ffffffffffffffffffffffffffffffffffffffff16036107a7576040517f08c379a000000000000000000000000000000000000000000000000000000000815260040161079e906132d1565b60405180910390fd5b8073ffffffffffffffffffffffffffffffffffffffff166107c66116e0565b73ffffffffffffffffffffffffffffffffffffffff1614806107f557506107f4816107ef6116e0565b611405565b5b610834576040517f08c379a000000000000000000000000000000000000000000000000000000000815260040161082b90613363565b60405180910390fd5b61083e83836116e8565b505050565b6702c68af0bb14000034101561088e576040517f08c379a0000000000000000000000000000000000000000000000000000000008152600401610885906133cf565b60405180910390fd5b60008351116108d2576040517f08c379a00000000000000000000000000000000000000000000000000000000081526004016108c99061343b565b60405180910390fd5b6000825111610916576040517f08c379a000000000000000000000000000000000000000000000000000000000815260040161090d906134a7565b60405180910390fd5b60086000815480929190610929906134f6565b91905055506000600854905061093f33826117a1565b60405180608001604052808581526020018481526020014281526020013373ffffffffffffffffffffffffffffffffffffffff16815250600a6000838152602001908152602001600020600082015181600001908161099e91906136ea565b5060208201518160010190816109b491906136ea565b506040820151816002015560608201518160030160006101000a81548173ffffffffffffffffffffffffffffffffffffffff021916908373ffffffffffffffffffffffffffffffffffffffff160217905550905050600082511115610a1e57610a1d81836117bf565b5b6000341115610af7576000600960009054906101000a900473ffffffffffffffffffffffffffffffffffffffff1673ffffffffffffffffffffffffffffffffffffffff1634604051610a6f906137ed565b60006040518083038185875af1925050503d8060008114610aac576040519150601f19603f3d011682016040523d82523d6000602084013e610ab1565b606091505b5050905080610af5576040517f08c379a0000000000000000000000000000000000000000000000000000000008152600401610aec9061384e565b60405180910390fd5b505b3373ffffffffffffffffffffffffffffffffffffffff16817f23eae53a2b33c20fc1b74912840a6a2a72adc26effa68729f81e756c875df2898542604051610b4092919061386e565b60405180910390a350505050565b6000600854905090565b610b60611863565b47811115610ba3576040517f08c379a0000000000000000000000000000000000000000000000000000000008152600401610b9a906138ea565b60405180910390fd5b6000610bad6112b3565b73ffffffffffffffffffffffffffffffffffffffff1682604051610bd0906137ed565b60006040518083038185875af1925050503d8060008114610c0d576040519150601f19603f3d011682016040523d82523d6000602084013e610c12565b606091505b5050905080610c56576040517f08c379a0000000000000000000000000000000000000000000000000000000008152600401610c4d90613956565b60405180910390fd5b5050565b610c6b610c656116e0565b826118e1565b610caa576040517f08c379a0000000000000000000000000000000000000000000000000000000008152600401610ca1906139e8565b60405180910390fd5b610cb5838383611976565b505050565b60606000610cc7836111e8565b905060008167ffffffffffffffff811115610ce557610ce4612b9b565b5b604051908082528060200260200182016040528015610d135781602001602082028036833780820191505090505b509050600080600190505b6008548111610da4578573ffffffffffffffffffffffffffffffffffffffff16610d4782611c6f565b73ffffffffffffffffffffffffffffffffffffffff1603610d915780838381518110610d7657610d75613a08565b5b6020026020010181815250508180610d8d906134f6565b9250505b8080610d9c906134f6565b915050610d1e565b50819350505050919050565b610dcb83838360405180602001604052806000815250611385565b505050565b610dd8611863565b565b600080610de683611c6f565b9050600073ffffffffffffffffffffffffffffffffffffffff168173ffffffffffffffffffffffffffffffffffffffff1603610e57576040517f08c379a0000000000000000000000000000000000000000000000000000000008152600401610e4e90613a83565b60405180910390fd5b80915050919050565b600a602052806000526040600020600091509050806000018054610e839061322e565b80601f0160208091040260200160405190810160405280929190818152602001828054610eaf9061322e565b8015610efc5780601f10610ed157610100808354040283529160200191610efc565b820191906000526020600020905b815481529060010190602001808311610edf57829003601f168201915b505050505090806001018054610f119061322e565b80601f0160208091040260200160405190810160405280929190818152602001828054610f3d9061322e565b8015610f8a5780601f10610f5f57610100808354040283529160200191610f8a565b820191906000526020600020905b815481529060010190602001808311610f6d57829003601f168201915b5050505050908060020154908060030160009054906101000a900473ffffffffffffffffffffffffffffffffffffffff16905084565b610fc86128a7565b600073ffffffffffffffffffffffffffffffffffffffff16610fe983611c6f565b73ffffffffffffffffffffffffffffffffffffffff160361103f576040517f08c379a000000000000000000000000000000000000000000000000000000000815260040161103690613aef565b60405180910390fd5b600a600083815260200190815260200160002060405180608001604052908160008201805461106d9061322e565b80601f01602080910402602001604051908101604052809291908181526020018280546110999061322e565b80156110e65780601f106110bb576101008083540402835291602001916110e6565b820191906000526020600020905b8154815290600101906020018083116110c957829003601f168201915b505050505081526020016001820180546110ff9061322e565b80601f016020809104026020016040519081016040528092919081815260200182805461112b9061322e565b80156111785780601f1061114d57610100808354040283529160200191611178565b820191906000526020600020905b81548152906001019060200180831161115b57829003601f168201915b50505050508152602001600282015481526020016003820160009054906101000a900473ffffffffffffffffffffffffffffffffffffffff1673ffffffffffffffffffffffffffffffffffffffff1673ffffffffffffffffffffffffffffffffffffffff16815250509050919050565b60008073ffffffffffffffffffffffffffffffffffffffff168273ffffffffffffffffffffffffffffffffffffffff1603611258576040517f08c379a000000000000000000000000000000000000000000000000000000000815260040161124f90613b81565b60405180910390fd5b600360008373ffffffffffffffffffffffffffffffffffffffff1673ffffffffffffffffffffffffffffffffffffffff168152602001908152602001600020549050919050565b6112a7611863565b6112b16000611cac565b565b6000600760009054906101000a900473ffffffffffffffffffffffffffffffffffffffff16905090565b6060600180546112ec9061322e565b80601f01602080910402602001604051908101604052809291908181526020018280546113189061322e565b80156113655780601f1061133a57610100808354040283529160200191611365565b820191906000526020600020905b81548152906001019060200180831161134857829003601f168201915b5050505050905090565b61138161137a6116e0565b8383611d72565b5050565b6113966113906116e0565b836118e1565b6113d5576040517f08c379a00000000000000000000000000000000000000000000000000000000081526004016113cc906139e8565b60405180910390fd5b6113e184848484611ede565b50505050565b60606113f282611f3a565b9050919050565b6702c68af0bb14000081565b6000600560008473ffffffffffffffffffffffffffffffffffffffff1673ffffffffffffffffffffffffffffffffffffffff16815260200190815260200160002060008373ffffffffffffffffffffffffffffffffffffffff1673ffffffffffffffffffffffffffffffffffffffff16815260200190815260200160002060009054906101000a900460ff16905092915050565b600960009054906101000a900473ffffffffffffffffffffffffffffffffffffffff1681565b6114c7611863565b600073ffffffffffffffffffffffffffffffffffffffff168173ffffffffffffffffffffffffffffffffffffffff1603611536576040517f08c379a000000000000000000000000000000000000000000000000000000000815260040161152d90613c13565b60405180910390fd5b61153f81611cac565b50565b61154a611863565b600073ffffffffffffffffffffffffffffffffffffffff168173ffffffffffffffffffffffffffffffffffffffff16036115b9576040517f08c379a00000000000000000000000000000000000000000000000000000000081526004016115b090613c7f565b60405180910390fd5b80600960006101000a81548173ffffffffffffffffffffffffffffffffffffffff021916908373ffffffffffffffffffffffffffffffffffffffff1602179055507fba887708e7d4436dd36b62187bdced03e0b9abe66caf392a66dd84386641b209816040516116299190612b0a565b60405180910390a150565b6000634906490660e01b7bffffffffffffffffffffffffffffffffffffffffffffffffffffffff1916827bffffffffffffffffffffffffffffffffffffffffffffffffffffffff1916148061168e575061168d8261204c565b5b9050919050565b61169e8161212e565b6116dd576040517f08c379a00000000000000000000000000000000000000000000000000000000081526004016116d490613a83565b60405180910390fd5b50565b600033905090565b816004600083815260200190815260200160002060006101000a81548173ffffffffffffffffffffffffffffffffffffffff021916908373ffffffffffffffffffffffffffffffffffffffff160217905550808273ffffffffffffffffffffffffffffffffffffffff1661175b83610dda565b73ffffffffffffffffffffffffffffffffffffffff167f8c5be1e5ebec7d5bd14f71427d1e84f3dd0314c0f7b2291e5b200ac8c7c3b92560405160405180910390a45050565b6117bb82826040518060200160405280600081525061216f565b5050565b6117c88261212e565b611807576040517f08c379a00000000000000000000000000000000000000000000000000000000081526004016117fe90613d11565b60405180910390fd5b8060066000848152602001908152602001600020908161182791906136ea565b507ff8e1a15aba9398e019f0b49df1a4fde98ee17ae345cb5f6b5e2c27f5033e8ce7826040516118579190612d7c565b60405180910390a15050565b61186b6116e0565b73ffffffffffffffffffffffffffffffffffffffff166118896112b3565b73ffffffffffffffffffffffffffffffffffffffff16146118df576040517f08c379a00000000000000000000000000000000000000000000000000000000081526004016118d690613d7d565b60405180910390fd5b565b6000806118ed83610dda565b90508073ffffffffffffffffffffffffffffffffffffffff168473ffffffffffffffffffffffffffffffffffffffff16148061192f575061192e8185611405565b5b8061196d57508373ffffffffffffffffffffffffffffffffffffffff16611955846106e6565b73ffffffffffffffffffffffffffffffffffffffff16145b91505092915050565b8273ffffffffffffffffffffffffffffffffffffffff1661199682610dda565b73ffffffffffffffffffffffffffffffffffffffff16146119ec576040517f08c379a00000000000000000000000000000000000000000000000000000000081526004016119e390613e0f565b60405180910390fd5b600073ffffffffffffffffffffffffffffffffffffffff168273ffffffffffffffffffffffffffffffffffffffff1603611a5b576040517f08c379a0000000000000000000000000000000000000000000000000000000008152600401611a5290613ea1565b60405180910390fd5b611a6883838360016121ca565b8273ffffffffffffffffffffffffffffffffffffffff16611a8882610dda565b73ffffffffffffffffffffffffffffffffffffffff1614611ade576040517f08c379a0000000000000000000000000000000000000000000000000000000008152600401611ad590613e0f565b60405180910390fd5b6004600082815260200190815260200160002060006101000a81549073ffffffffffffffffffffffffffffffffffffffff02191690556001600360008573ffffffffffffffffffffffffffffffffffffffff1673ffffffffffffffffffffffffffffffffffffffff168152602001908152602001600020600082825403925050819055506001600360008473ffffffffffffffffffffffffffffffffffffffff1673ffffffffffffffffffffffffffffffffffffffff16815260200190815260200160002060008282540192505081905550816002600083815260200190815260200160002060006101000a81548173ffffffffffffffffffffffffffffffffffffffff021916908373ffffffffffffffffffffffffffffffffffffffff160217905550808273ffffffffffffffffffffffffffffffffffffffff168473ffffffffffffffffffffffffffffffffffffffff167fddf252ad1be2c89b69c2b068fc378daa952ba7f163c4a11628f55a4df523b3ef60405160405180910390a4611c6a83838360016121d0565b505050565b60006002600083815260200190815260200160002060009054906101000a900473ffffffffffffffffffffffffffffffffffffffff169050919050565b6000600760009054906101000a900473ffffffffffffffffffffffffffffffffffffffff16905081600760006101000a81548173ffffffffffffffffffffffffffffffffffffffff021916908373ffffffffffffffffffffffffffffffffffffffff1602179055508173ffffffffffffffffffffffffffffffffffffffff168173ffffffffffffffffffffffffffffffffffffffff167f8be0079c531659141344cd1fd0a4f28419497f9722a3daafe3b4186f6b6457e060405160405180910390a35050565b8173ffffffffffffffffffffffffffffffffffffffff168373ffffffffffffffffffffffffffffffffffffffff1603611de0576040517f08c379a0000000000000000000000000000000000000000000000000000000008152600401611dd790613f0d565b60405180910390fd5b80600560008573ffffffffffffffffffffffffffffffffffffffff1673ffffffffffffffffffffffffffffffffffffffff16815260200190815260200160002060008473ffffffffffffffffffffffffffffffffffffffff1673ffffffffffffffffffffffffffffffffffffffff16815260200190815260200160002060006101000a81548160ff0219169083151502179055508173ffffffffffffffffffffffffffffffffffffffff168373ffffffffffffffffffffffffffffffffffffffff167f17307eab39ab6107e8899845ad3d59bd9653f200f220920489ca2b5937696c3183604051611ed19190612999565b60405180910390a3505050565b611ee9848484611976565b611ef5848484846121d6565b611f34576040517f08c379a0000000000000000000000000000000000000000000000000000000008152600401611f2b90613f9f565b60405180910390fd5b50505050565b6060611f4582611695565b6000600660008481526020019081526020016000208054611f659061322e565b80601f0160208091040260200160405190810160405280929190818152602001828054611f919061322e565b8015611fde5780601f10611fb357610100808354040283529160200191611fde565b820191906000526020600020905b815481529060010190602001808311611fc157829003601f168201915b505050505090506000611fef61235d565b90506000815103612004578192505050612047565b600082511115612039578082604051602001612021929190613ffb565b60405160208183030381529060405292505050612047565b61204284612374565b925050505b919050565b60007f80ac58cd000000000000000000000000000000000000000000000000000000007bffffffffffffffffffffffffffffffffffffffffffffffffffffffff1916827bffffffffffffffffffffffffffffffffffffffffffffffffffffffff1916148061211757507f5b5e139f000000000000000000000000000000000000000000000000000000007bffffffffffffffffffffffffffffffffffffffffffffffffffffffff1916827bffffffffffffffffffffffffffffffffffffffffffffffffffffffff1916145b806121275750612126826123dc565b5b9050919050565b60008073ffffffffffffffffffffffffffffffffffffffff1661215083611c6f565b73ffffffffffffffffffffffffffffffffffffffff1614159050919050565b6121798383612446565b61218660008484846121d6565b6121c5576040517f08c379a00000000000000000000000000000000000000000000000000000000081526004016121bc90613f9f565b60405180910390fd5b505050565b50505050565b50505050565b60006121f78473ffffffffffffffffffffffffffffffffffffffff16612663565b15612350578373ffffffffffffffffffffffffffffffffffffffff1663150b7a026122206116e0565b8786866040518563ffffffff1660e01b81526004016122429493929190614074565b6020604051808303816000875af192505050801561227e57506040513d601f19601f8201168201806040525081019061227b91906140d5565b60015b612300573d80600081146122ae576040519150601f19603f3d011682016040523d82523d6000602084013e6122b3565b606091505b5060008151036122f8576040517f08c379a00000000000000000000000000000000000000000000000000000000081526004016122ef90613f9f565b60405180910390fd5b805181602001fd5b63150b7a0260e01b7bffffffffffffffffffffffffffffffffffffffffffffffffffffffff1916817bffffffffffffffffffffffffffffffffffffffffffffffffffffffff191614915050612355565b600190505b949350505050565b606060405180602001604052806000815250905090565b606061237f82611695565b600061238961235d565b905060008151116123a957604051806020016040528060008152506123d4565b806123b384612686565b6040516020016123c4929190613ffb565b6040516020818303038152906040525b915050919050565b60007f01ffc9a7000000000000000000000000000000000000000000000000000000007bffffffffffffffffffffffffffffffffffffffffffffffffffffffff1916827bffffffffffffffffffffffffffffffffffffffffffffffffffffffff1916149050919050565b600073ffffffffffffffffffffffffffffffffffffffff168273ffffffffffffffffffffffffffffffffffffffff16036124b5576040517f08c379a00000000000000000000000000000000000000000000000000000000081526004016124ac9061414e565b60405180910390fd5b6124be8161212e565b156124fe576040517f08c379a00000000000000000000000000000000000000000000000000000000081526004016124f5906141ba565b60405180910390fd5b61250c6000838360016121ca565b6125158161212e565b15612555576040517f08c379a000000000000000000000000000000000000000000000000000000000815260040161254c906141ba565b60405180910390fd5b6001600360008473ffffffffffffffffffffffffffffffffffffffff1673ffffffffffffffffffffffffffffffffffffffff16815260200190815260200160002060008282540192505081905550816002600083815260200190815260200160002060006101000a81548173ffffffffffffffffffffffffffffffffffffffff021916908373ffffffffffffffffffffffffffffffffffffffff160217905550808273ffffffffffffffffffffffffffffffffffffffff16600073ffffffffffffffffffffffffffffffffffffffff167fddf252ad1be2c89b69c2b068fc378daa952ba7f163c4a11628f55a4df523b3ef60405160405180910390a461265f6000838360016121d0565b5050565b6000808273ffffffffffffffffffffffffffffffffffffffff163b119050919050565b60606000600161269584612754565b01905060008167ffffffffffffffff8111156126b4576126b3612b9b565b5b6040519080825280601f01601f1916602001820160405280156126e65781602001600182028036833780820191505090505b509050600082602001820190505b600115612749578080600190039150507f3031323334353637383961626364656600000000000000000000000000000000600a86061a8153600a858161273d5761273c6141da565b5b049450600085036126f4575b819350505050919050565b600080600090507a184f03e93ff9f4daa797ed6e38ed64bf6a1f01000000000000000083106127b2577a184f03e93ff9f4daa797ed6e38ed64bf6a1f01000000000000000083816127a8576127a76141da565b5b0492506040810190505b6d04ee2d6d415b85acef810000000083106127ef576d04ee2d6d415b85acef810000000083816127e5576127e46141da565b5b0492506020810190505b662386f26fc10000831061281e57662386f26fc100008381612814576128136141da565b5b0492506010810190505b6305f5e1008310612847576305f5e100838161283d5761283c6141da565b5b0492506008810190505b612710831061286c576127108381612862576128616141da565b5b0492506004810190505b6064831061288f5760648381612885576128846141da565b5b0492506002810190505b600a831061289e576001810190505b80915050919050565b6040518060800160405280606081526020016060815260200160008152602001600073ffffffffffffffffffffffffffffffffffffffff1681525090565b6000604051905090565b600080fd5b600080fd5b60007fffffffff0000000000000000000000000000000000000000000000000000000082169050919050565b61292e816128f9565b811461293957600080fd5b50565b60008135905061294b81612925565b92915050565b600060208284031215612967576129666128ef565b5b60006129758482850161293c565b91505092915050565b60008115159050919050565b6129938161297e565b82525050565b60006020820190506129ae600083018461298a565b92915050565b600081519050919050565b600082825260208201905092915050565b60005b838110156129ee5780820151818401526020810190506129d3565b60008484015250505050565b6000601f19601f8301169050919050565b6000612a16826129b4565b612a2081856129bf565b9350612a308185602086016129d0565b612a39816129fa565b840191505092915050565b60006020820190508181036000830152612a5e8184612a0b565b905092915050565b6000819050919050565b612a7981612a66565b8114612a8457600080fd5b50565b600081359050612a9681612a70565b92915050565b600060208284031215612ab257612ab16128ef565b5b6000612ac084828501612a87565b91505092915050565b600073ffffffffffffffffffffffffffffffffffffffff82169050919050565b6000612af482612ac9565b9050919050565b612b0481612ae9565b82525050565b6000602082019050612b1f6000830184612afb565b92915050565b612b2e81612ae9565b8114612b3957600080fd5b50565b600081359050612b4b81612b25565b92915050565b60008060408385031215612b6857612b676128ef565b5b6000612b7685828601612b3c565b9250506020612b8785828601612a87565b9150509250929050565b600080fd5b600080fd5b7f4e487b7100000000000000000000000000000000000000000000000000000000600052604160045260246000fd5b612bd3826129fa565b810181811067ffffffffffffffff82111715612bf257612bf1612b9b565b5b80604052505050565b6000612c056128e5565b9050612c118282612bca565b919050565b600067ffffffffffffffff821115612c3157612c30612b9b565b5b612c3a826129fa565b9050602081019050919050565b82818337600083830152505050565b6000612c69612c6484612c16565b612bfb565b905082815260208101848484011115612c8557612c84612b96565b5b612c90848285612c47565b509392505050565b600082601f830112612cad57612cac612b91565b5b8135612cbd848260208601612c56565b91505092915050565b600080600060608486031215612cdf57612cde6128ef565b5b600084013567ffffffffffffffff811115612cfd57612cfc6128f4565b5b612d0986828701612c98565b935050602084013567ffffffffffffffff811115612d2a57612d296128f4565b5b612d3686828701612c98565b925050604084013567ffffffffffffffff811115612d5757612d566128f4565b5b612d6386828701612c98565b9150509250925092565b612d7681612a66565b82525050565b6000602082019050612d916000830184612d6d565b92915050565b600080600060608486031215612db057612daf6128ef565b5b6000612dbe86828701612b3c565b9350506020612dcf86828701612b3c565b9250506040612de086828701612a87565b9150509250925092565b600060208284031215612e0057612dff6128ef565b5b6000612e0e84828501612b3c565b91505092915050565b600081519050919050565b600082825260208201905092915050565b6000819050602082019050919050565b612e4c81612a66565b82525050565b6000612e5e8383612e43565b60208301905092915050565b6000602082019050919050565b6000612e8282612e17565b612e8c8185612e22565b9350612e9783612e33565b8060005b83811015612ec8578151612eaf8882612e52565b9750612eba83612e6a565b925050600181019050612e9b565b5085935050505092915050565b60006020820190508181036000830152612eef8184612e77565b905092915050565b60006080820190508181036000830152612f118187612a0b565b90508181036020830152612f258186612a0b565b9050612f346040830185612d6d565b612f416060830184612afb565b95945050505050565b600082825260208201905092915050565b6000612f66826129b4565b612f708185612f4a565b9350612f808185602086016129d0565b612f89816129fa565b840191505092915050565b612f9d81612ae9565b82525050565b60006080830160008301518482036000860152612fc08282612f5b565b91505060208301518482036020860152612fda8282612f5b565b9150506040830151612fef6040860182612e43565b5060608301516130026060860182612f94565b508091505092915050565b600060208201905081810360008301526130278184612fa3565b905092915050565b6130388161297e565b811461304357600080fd5b50565b6000813590506130558161302f565b92915050565b60008060408385031215613072576130716128ef565b5b600061308085828601612b3c565b925050602061309185828601613046565b9150509250929050565b600067ffffffffffffffff8211156130b6576130b5612b9b565b5b6130bf826129fa565b9050602081019050919050565b60006130df6130da8461309b565b612bfb565b9050828152602081018484840111156130fb576130fa612b96565b5b613106848285612c47565b509392505050565b600082601f83011261312357613122612b91565b5b81356131338482602086016130cc565b91505092915050565b60008060008060808587031215613156576131556128ef565b5b600061316487828801612b3c565b945050602061317587828801612b3c565b935050604061318687828801612a87565b925050606085013567ffffffffffffffff8111156131a7576131a66128f4565b5b6131b38782880161310e565b91505092959194509250565b600080604083850312156131d6576131d56128ef565b5b60006131e485828601612b3c565b92505060206131f585828601612b3c565b9150509250929050565b7f4e487b7100000000000000000000000000000000000000000000000000000000600052602260045260246000fd5b6000600282049050600182168061324657607f821691505b602082108103613259576132586131ff565b5b50919050565b7f4552433732313a20617070726f76616c20746f2063757272656e74206f776e6560008201527f7200000000000000000000000000000000000000000000000000000000000000602082015250565b60006132bb6021836129bf565b91506132c68261325f565b604082019050919050565b600060208201905081810360008301526132ea816132ae565b9050919050565b7f4552433732313a20617070726f76652063616c6c6572206973206e6f7420746f60008201527f6b656e206f776e6572206f7220617070726f76656420666f7220616c6c000000602082015250565b600061334d603d836129bf565b9150613358826132f1565b604082019050919050565b6000602082019050818103600083015261337c81613340565b9050919050565b7f496e73756666696369656e74206d696e74696e67206665650000000000000000600082015250565b60006133b96018836129bf565b91506133c482613383565b602082019050919050565b600060208201905081810360008301526133e8816133ac565b9050919050565b7f496d61676520646174612063616e6e6f7420626520656d707479000000000000600082015250565b6000613425601a836129bf565b9150613430826133ef565b602082019050919050565b6000602082019050818103600083015261345481613418565b9050919050565b7f4d6f6f642063616e6e6f7420626520656d707479000000000000000000000000600082015250565b60006134916014836129bf565b915061349c8261345b565b602082019050919050565b600060208201905081810360008301526134c081613484565b9050919050565b7f4e487b7100000000000000000000000000000000000000000000000000000000600052601160045260246000fd5b600061350182612a66565b91507fffffffffffffffffffffffffffffffffffffffffffffffffffffffffffffffff8203613533576135326134c7565b5b600182019050919050565b60008190508160005260206000209050919050565b60006020601f8301049050919050565b600082821b905092915050565b6000600883026135a07fffffffffffffffffffffffffffffffffffffffffffffffffffffffffffffffff82613563565b6135aa8683613563565b95508019841693508086168417925050509392505050565b6000819050919050565b60006135e76135e26135dd84612a66565b6135c2565b612a66565b9050919050565b6000819050919050565b613601836135cc565b61361561360d826135ee565b848454613570565b825550505050565b600090565b61362a61361d565b6136358184846135f8565b505050565b5b818110156136595761364e600082613622565b60018101905061363b565b5050565b601f82111561369e5761366f8161353e565b61367884613553565b81016020851015613687578190505b61369b61369385613553565b83018261363a565b50505b505050565b600082821c905092915050565b60006136c1600019846008026136a3565b1980831691505092915050565b60006136da83836136b0565b9150826002028217905092915050565b6136f3826129b4565b67ffffffffffffffff81111561370c5761370b612b9b565b5b613716825461322e565b61372182828561365d565b600060209050601f8311600181146137545760008415613742578287015190505b61374c85826136ce565b8655506137b4565b601f1984166137628661353e565b60005b8281101561378a57848901518255600182019150602085019450602081019050613765565b868310156137a757848901516137a3601f8916826136b0565b8355505b6001600288020188555050505b505050505050565b600081905092915050565b50565b60006137d76000836137bc565b91506137e2826137c7565b600082019050919050565b60006137f8826137ca565b9150819050919050565b7f4661696c656420746f207472616e7366657220706c6174666f726d2066656500600082015250565b6000613838601f836129bf565b915061384382613802565b602082019050919050565b600060208201905081810360008301526138678161382b565b9050919050565b600060408201905081810360008301526138888185612a0b565b90506138976020830184612d6d565b9392505050565b7f496e73756666696369656e7420636f6e74726163742062616c616e6365000000600082015250565b60006138d4601d836129bf565b91506138df8261389e565b602082019050919050565b60006020820190508181036000830152613903816138c7565b9050919050565b7f4661696c656420746f2077697468647261772045544800000000000000000000600082015250565b60006139406016836129bf565b915061394b8261390a565b602082019050919050565b6000602082019050818103600083015261396f81613933565b9050919050565b7f4552433732313a2063616c6c6572206973206e6f7420746f6b656e206f776e6560008201527f72206f7220617070726f76656400000000000000000000000000000000000000602082015250565b60006139d2602d836129bf565b91506139dd82613976565b604082019050919050565b60006020820190508181036000830152613a01816139c5565b9050919050565b7f4e487b7100000000000000000000000000000000000000000000000000000000600052603260045260246000fd5b7f4552433732313a20696e76616c696420746f6b656e2049440000000000000000600082015250565b6000613a6d6018836129bf565b9150613a7882613a37565b602082019050919050565b60006020820190508181036000830152613a9c81613a60565b9050919050565b7f546f6b656e20646f6573206e6f74206578697374000000000000000000000000600082015250565b6000613ad96014836129bf565b9150613ae482613aa3565b602082019050919050565b60006020820190508181036000830152613b0881613acc565b9050919050565b7f4552433732313a2061646472657373207a65726f206973206e6f74206120766160008201527f6c6964206f776e65720000000000000000000000000000000000000000000000602082015250565b6000613b6b6029836129bf565b9150613b7682613b0f565b604082019050919050565b60006020820190508181036000830152613b9a81613b5e565b9050919050565b7f4f776e61626c653a206e6577206f776e657220697320746865207a65726f206160008201527f6464726573730000000000000000000000000000000000000000000000000000602082015250565b6000613bfd6026836129bf565b9150613c0882613ba1565b604082019050919050565b60006020820190508181036000830152613c2c81613bf0565b9050919050565b7f496e76616c696420726563697069656e74206164647265737300000000000000600082015250565b6000613c696019836129bf565b9150613c7482613c33565b602082019050919050565b60006020820190508181036000830152613c9881613c5c565b9050919050565b7f45524337323155524953746f726167653a2055524920736574206f66206e6f6e60008201527f6578697374656e7420746f6b656e000000000000000000000000000000000000602082015250565b6000613cfb602e836129bf565b9150613d0682613c9f565b604082019050919050565b60006020820190508181036000830152613d2a81613cee565b9050919050565b7f4f776e61626c653a2063616c6c6572206973206e6f7420746865206f776e6572600082015250565b6000613d676020836129bf565b9150613d7282613d31565b602082019050919050565b60006020820190508181036000830152613d9681613d5a565b9050919050565b7f4552433732313a207472616e736665722066726f6d20696e636f72726563742060008201527f6f776e6572000000000000000000000000000000000000000000000000000000602082015250565b6000613df96025836129bf565b9150613e0482613d9d565b604082019050919050565b60006020820190508181036000830152613e2881613dec565b9050919050565b7f4552433732313a207472616e7366657220746f20746865207a65726f2061646460008201527f7265737300000000000000000000000000000000000000000000000000000000602082015250565b6000613e8b6024836129bf565b9150613e9682613e2f565b604082019050919050565b60006020820190508181036000830152613eba81613e7e565b9050919050565b7f4552433732313a20617070726f766520746f2063616c6c657200000000000000600082015250565b6000613ef76019836129bf565b9150613f0282613ec1565b602082019050919050565b60006020820190508181036000830152613f2681613eea565b9050919050565b7f4552433732313a207472616e7366657220746f206e6f6e20455243373231526560008201527f63656976657220696d706c656d656e7465720000000000000000000000000000602082015250565b6000613f896032836129bf565b9150613f9482613f2d565b604082019050919050565b60006020820190508181036000830152613fb881613f7c565b9050919050565b600081905092915050565b6000613fd5826129b4565b613fdf8185613fbf565b9350613fef8185602086016129d0565b80840191505092915050565b60006140078285613fca565b91506140138284613fca565b91508190509392505050565b600081519050919050565b600082825260208201905092915050565b60006140468261401f565b614050818561402a565b93506140608185602086016129d0565b614069816129fa565b840191505092915050565b60006080820190506140896000830187612afb565b6140966020830186612afb565b6140a36040830185612d6d565b81810360608301526140b5818461403b565b905095945050505050565b6000815190506140cf81612925565b92915050565b6000602082840312156140eb576140ea6128ef565b5b60006140f9848285016140c0565b91505092915050565b7f4552433732313a206d696e7420746f20746865207a65726f2061646472657373600082015250565b60006141386020836129bf565b915061414382614102565b602082019050919050565b600060208201905081810360008301526141678161412b565b9050919050565b7f4552433732313a20746f6b656e20616c7265616479206d696e74656400000000600082015250565b60006141a4601c836129bf565b91506141af8261416e565b602082019050919050565b600060208201905081810360008301526141d381614197565b9050919050565b7f4e487b7100000000000000000000000000000000000000000000000000000000600052601260045260246000fdfea2646970667358221220de3d22a9545204c92afc6c7a093f1e01bec5335fcc4e7ae7540e10a94626e60764736f6c63430008140033",
  "linkReferences": {},
  "deployedLinkReferences": {}
}